{
  "_format": "hh-sol-artifact-1",
  "contractName": "token",
  "sourceName": "contracts/token.sol",
  "abi": [
    {
      "inputs": [],
      "stateMutability": "nonpayable",
      "type": "constructor"
    },
    {
      "inputs": [
        {
          "internalType": "address",
          "name": "account",
          "type": "address"
        }
      ],
      "name": "checkbalance",
      "outputs": [
        {
          "internalType": "uint256",
          "name": "",
          "type": "uint256"
        }
      ],
      "stateMutability": "view",
      "type": "function"
    },
    {
      "inputs": [],
      "name": "name",
      "outputs": [
        {
          "internalType": "string",
          "name": "",
          "type": "string"
        }
      ],
      "stateMutability": "view",
      "type": "function"
    },
    {
      "inputs": [],
      "name": "owner",
      "outputs": [
        {
          "internalType": "address",
          "name": "",
          "type": "address"
        }
      ],
      "stateMutability": "view",
      "type": "function"
    },
    {
      "inputs": [],
      "name": "symbol",
      "outputs": [
        {
          "internalType": "string",
          "name": "",
          "type": "string"
        }
      ],
      "stateMutability": "view",
      "type": "function"
    },
    {
      "inputs": [],
      "name": "totalsupply",
      "outputs": [
        {
          "internalType": "uint256",
          "name": "",
          "type": "uint256"
        }
      ],
      "stateMutability": "view",
      "type": "function"
    },
    {
      "inputs": [
        {
          "internalType": "address",
          "name": "to",
          "type": "address"
        },
        {
          "internalType": "uint256",
          "name": "amount",
          "type": "uint256"
        }
      ],
      "name": "transfer",
      "outputs": [],
      "stateMutability": "nonpayable",
      "type": "function"
    }
  ],
  "bytecode": "0x60806040526040518060400160405280600b81526020017f666972737420746f6b656e000000000000000000000000000000000000000000815250600090816200004a9190620003ad565b506040518060400160405280600281526020017f465400000000000000000000000000000000000000000000000000000000000081525060019081620000919190620003ad565b50612710600255348015620000a557600080fd5b50600254600460003373ffffffffffffffffffffffffffffffffffffffff1673ffffffffffffffffffffffffffffffffffffffff1681526020019081526020016000208190555033600360006101000a81548173ffffffffffffffffffffffffffffffffffffffff021916908373ffffffffffffffffffffffffffffffffffffffff16021790555062000494565b600081519050919050565b7f4e487b7100000000000000000000000000000000000000000000000000000000600052604160045260246000fd5b7f4e487b7100000000000000000000000000000000000000000000000000000000600052602260045260246000fd5b60006002820490506001821680620001b557607f821691505b602082108103620001cb57620001ca6200016d565b5b50919050565b60008190508160005260206000209050919050565b60006020601f8301049050919050565b600082821b905092915050565b600060088302620002357fffffffffffffffffffffffffffffffffffffffffffffffffffffffffffffffff82620001f6565b620002418683620001f6565b95508019841693508086168417925050509392505050565b6000819050919050565b6000819050919050565b60006200028e62000288620002828462000259565b62000263565b62000259565b9050919050565b6000819050919050565b620002aa836200026d565b620002c2620002b98262000295565b84845462000203565b825550505050565b600090565b620002d9620002ca565b620002e68184846200029f565b505050565b5b818110156200030e5762000302600082620002cf565b600181019050620002ec565b5050565b601f8211156200035d576200032781620001d1565b6200033284620001e6565b8101602085101562000342578190505b6200035a6200035185620001e6565b830182620002eb565b50505b505050565b600082821c905092915050565b6000620003826000198460080262000362565b1980831691505092915050565b60006200039d83836200036f565b9150826002028217905092915050565b620003b88262000133565b67ffffffffffffffff811115620003d457620003d36200013e565b5b620003e082546200019c565b620003ed82828562000312565b600060209050601f83116001811462000425576000841562000410578287015190505b6200041c85826200038f565b8655506200048c565b601f1984166200043586620001d1565b60005b828110156200045f5784890151825560018201915060208501945060208101905062000438565b868310156200047f57848901516200047b601f8916826200036f565b8355505b6001600288020188555050505b505050505050565b61096e80620004a46000396000f3fe608060405234801561001057600080fd5b50600436106100625760003560e01c806306fdde031461006757806372dd529b146100855780638da5cb5b146100a357806395d89b41146100c1578063a9059cbb146100df578063e83029bb146100fb575b600080fd5b61006f61012b565b60405161007c91906105ec565b60405180910390f35b61008d6101b9565b60405161009a9190610627565b60405180910390f35b6100ab6101bf565b6040516100b89190610683565b60405180910390f35b6100c96101e5565b6040516100d691906105ec565b60405180910390f35b6100f960048036038101906100f491906106fb565b610273565b005b6101156004803603810190610110919061073b565b610424565b6040516101229190610627565b60405180910390f35b6000805461013890610797565b80601f016020809104026020016040519081016040528092919081815260200182805461016490610797565b80156101b15780601f10610186576101008083540402835291602001916101b1565b820191906000526020600020905b81548152906001019060200180831161019457829003601f168201915b505050505081565b60025481565b600360009054906101000a900473ffffffffffffffffffffffffffffffffffffffff1681565b600180546101f290610797565b80601f016020809104026020016040519081016040528092919081815260200182805461021e90610797565b801561026b5780601f106102405761010080835404028352916020019161026b565b820191906000526020600020905b81548152906001019060200180831161024e57829003601f168201915b505050505081565b6102f26040518060400160405280601181526020017f7472616e7366657220257320746f202573000000000000000000000000000000815250600460003373ffffffffffffffffffffffffffffffffffffffff1673ffffffffffffffffffffffffffffffffffffffff168152602001908152602001600020548461046d565b80600460003373ffffffffffffffffffffffffffffffffffffffff1673ffffffffffffffffffffffffffffffffffffffff168152602001908152602001600020541015610374576040517f08c379a000000000000000000000000000000000000000000000000000000000815260040161036b90610814565b60405180910390fd5b80600460003373ffffffffffffffffffffffffffffffffffffffff1673ffffffffffffffffffffffffffffffffffffffff16815260200190815260200160002060008282546103c39190610863565b9250508190555080600460008473ffffffffffffffffffffffffffffffffffffffff1673ffffffffffffffffffffffffffffffffffffffff16815260200190815260200160002060008282546104199190610897565b925050819055505050565b6000600460008373ffffffffffffffffffffffffffffffffffffffff1673ffffffffffffffffffffffffffffffffffffffff168152602001908152602001600020549050919050565b610507838383604051602401610485939291906108cb565b6040516020818303038152906040527f1c7ec448000000000000000000000000000000000000000000000000000000007bffffffffffffffffffffffffffffffffffffffffffffffffffffffff19166020820180517bffffffffffffffffffffffffffffffffffffffffffffffffffffffff838183161783525050505061050c565b505050565b6105238161051b610526610547565b63ffffffff16565b50565b60006a636f6e736f6c652e6c6f679050600080835160208501845afa505050565b610552819050919050565b61055a610909565b565b600081519050919050565b600082825260208201905092915050565b60005b8381101561059657808201518184015260208101905061057b565b60008484015250505050565b6000601f19601f8301169050919050565b60006105be8261055c565b6105c88185610567565b93506105d8818560208601610578565b6105e1816105a2565b840191505092915050565b6000602082019050818103600083015261060681846105b3565b905092915050565b6000819050919050565b6106218161060e565b82525050565b600060208201905061063c6000830184610618565b92915050565b600073ffffffffffffffffffffffffffffffffffffffff82169050919050565b600061066d82610642565b9050919050565b61067d81610662565b82525050565b60006020820190506106986000830184610674565b92915050565b600080fd5b6106ac81610662565b81146106b757600080fd5b50565b6000813590506106c9816106a3565b92915050565b6106d88161060e565b81146106e357600080fd5b50565b6000813590506106f5816106cf565b92915050565b600080604083850312156107125761071161069e565b5b6000610720858286016106ba565b9250506020610731858286016106e6565b9150509250929050565b6000602082840312156107515761075061069e565b5b600061075f848285016106ba565b91505092915050565b7f4e487b7100000000000000000000000000000000000000000000000000000000600052602260045260246000fd5b600060028204905060018216806107af57607f821691505b6020821081036107c2576107c1610768565b5b50919050565b7f4c6f772062616c616e6365000000000000000000000000000000000000000000600082015250565b60006107fe600b83610567565b9150610809826107c8565b602082019050919050565b6000602082019050818103600083015261082d816107f1565b9050919050565b7f4e487b7100000000000000000000000000000000000000000000000000000000600052601160045260246000fd5b600061086e8261060e565b91506108798361060e565b925082820390508181111561089157610890610834565b5b92915050565b60006108a28261060e565b91506108ad8361060e565b92508282019050808211156108c5576108c4610834565b5b92915050565b600060608201905081810360008301526108e581866105b3565b90506108f46020830185610618565b6109016040830184610674565b949350505050565b7f4e487b7100000000000000000000000000000000000000000000000000000000600052605160045260246000fdfea2646970667358221220426c1ba39ca71c38d7076ee2274dfa42c37230c785824853397fa426fa89640164736f6c63430008130033",
  "linkReferences": {},
  "deployedLinkReferences": {}
}